:10078300E4F5131208747FF47E011207A5C3E5187C
:1007930094E8E51794034005E4F517F5187546103A
:0207A30080EBE9
:1007A500D3EF9400EE940040147D6E7C00ED1D7037
:0D07B500011CED4C70F7EF1F70E61E80E395
:0107C2002214
:0B08B100EF1FAC0670011E4C70F62219
:0B06E5000116000217000002140000C4
:10087400758911758DFF758BA4D2ABD28ED2AF2240
:03000B00020003ED
:03000300C2003206
:03001B000205D308
:1005D300C0E0C0F0C083C082C0D075D000C000C0EE
:1005E30001C002C003C004C005C006C007758DFF6B
:1005F300758BA40518E518700205170515E5157028
:100603000205140516E516C39414400E7B007A0008
:1006130079417D03120691751600120831D007D077
:1006230006D005D004D003D002D001D000D0D0D062
:0806330082D083D0F0D0E03248
:10084B004F75747075743A00446972656374696F9F
:05085B006E3A000000F0
:1007FB00C2A3C2A4C2A58F807F017E001207A5D21F
:0B080B00A57F017E001207A5C2A522F8
:10081600D2A3C2A4C2A58F807F017E001207A5D2F3
:0B082600A57F017E001207A5C2A522DD
:100860007F381207FB7F061207FB7F0C1207FB7F06
:04087000010207FB7F
:10088400C2A3D2A4C2A57580FFD2A5E58070F122CF
:0A063B008F088D098B0A8A0B890CC9
:10064500E4F50DE508D394015041E509940F503BBD
:10065500AB0AAA0BA90C1204716030E5087006E517
:100665000924808004E50924C0250DFF1207FBAB92
:100675000AAA0BA90C120471FF120816050D7401C4
:0B068500250CF50CE4350BF50B80C5CF
:010690002247
:1007C3008B1D8A1E891FEF70057D08FF800AAB1DF4
:0C07D300AA1EA91F7D0B7F0112063B220D
:040728008F198D1A7E
:10072C00781B7C007D007BFF7A08795E7E007F025F
:10073C0012044B851A1BE519700AFB7A00791B7D94
:10074C0008FF800A7B007A00791B7D0B7F01120663
:01075C003B61
:01075D002279
:1007DF001208607BFF7A08794BE4FDFF12063B7B22
:0C07EF00FF7A087953E4FD7F0102063B0D
:0506F000C100014700FC
:10055100E4F58CF58A30A7FDD28C20A7FDC28CAFC3
:100561008CEFFEAD8A7C00E42DFDEC3EFCE4120232
:10057100C17B967A43790B783D120116E4FBFAF9B7
:10058100784012021FE4FBFA7980783F12002512AD
:1005910002FA8F47E547C394335003300005120038
:1005A1000E802CE54775F064842421F8E6F543E5D7
:1005B1004775F06484E5F075F00A842431F8E6F5B6
:1005C10042E54775F00A84743125F0F8E6F541AF4C
:0205D1004722BF
:0C000E00C2007543BF7542BF7541BF22A0
:0E08A300C2A6D2A67F027E001208B1C2A62213
:1006F5001031C0F9A4B0999282F880908883C6A180
:10070500868E1021407924301912027800100803D2
:090715004621060E0341BFBFBFDF
:080691008B0E8A0F89108D11F8
:10069900E4F512E512C395115041E51214600F14E7
:1006A900601424027016C2A2D2A1D2A0800ED2A2D6
:1006B900C2A1D2A08006D2A2D2A1C2A0AB0EAA0F1B
:1006C900A91085128275830012048AF5807F147E31
:0B06D900001208B17580FF051280B808
:0106E40022F3
:03071E000148FF90
:0F089400E548B507047548FF228F487580FF229D
:10075E0020A421C28E7F0A7E001207A520A413D2E8
:10076E008E7F041208947500FFE548B4FF06E4F589
:05077E000022D28E22D2
:0607210001460C0144003A
:0A08BC0075460A7FF47E010207A5CD
:0A08C60075460D7FF47E010207A5C0
:0A08D0007546147FF47E010207A5AF
:10083100E544D395465004D2A38002C2A30544E502
:0A08410044C394C84003E4F54422C8
:10001E00020366E86480F8E933E83360110460F0A7
:10002E00ED33EC337009E8FCE9FDEAFEEBFF220448
:10003E0060DED3EB9FEA9EE99DE8C2E78CF0C2F743
:10004E0095F0400CE8CCF8E9CDF9EACEFAEBCFFB0F
:10005E0012033185D0F05804700320D5B3E8047034
:10006E00075002B2D502037092D5EC0460F7E4CCCF
:10007E00C0E0C398F8603B94186008400DD0E0FBD8
:10008E00020348E4FBFAC9FC8028E830E406E4C920
:10009E00FBE4CAFCE830E305E4C9CACBFCE854072C
:1000AE006010F8C3E913F9EA13FAEB13FBEC13FC37
:1000BE00D8F130F52FC3E49CFCEF9BFFEE9AFEEDDA
:1000CE0099FDD0E0FBEF4E4D4C701222DB03020384
:1000DE006DEC2CFCEF33FFEE33FEED33FDED30E730
:1000EE00EB020348EF2BFFEE3AFEED39FDD0E0FBBD
:1000FE0050130BBB0003020370ED13FDEE13FEEF66
:08010E0013FFEC13FC0203488F
:10011600EC4D6011E8497017ED33EC3304600DE4E3
:10012600FCFFFEFD22E933E8330470F80203661291
:10013600033158046009E4CC248150062850090292
:10014600037028400302036DC0E0EB4A7044B98097
:1001560006D0E0FB02035CEF4E701CBD8008EBFF8F
:10016600EAFEE9FD80EBE98DF0A4FEE5F00201FF71
:10017600E9CDF9EAFEEBFFEF89F0A4FCE5F0CE89C4
:10018600F0A42EFFE435F0CD89F0A42DFEE435F081
:100196008067EF4E7005BD80D780C3EF8BF0A4ACAF
:1001A600F0EE8BF0A42CFCE435F0F8EF8AF0A42CEA
:1001B600E5F038FCE433CB8DF0A42CFCE5F03BF8FD
:1001C600EE8AF0A42CFCE5F038F8E433CF89F0A4ED
:1001D6002CFCE5F038CF3400CE89F0A42FFFE5F0F3
:1001E6003EFEE433C98DF0A42EFEE5F039CD8AF04B
:1001F600A42FFFE5F03EFEE43DFD33D0E0FB5007C3
:100206000BBB000F020370EC2CFCEF33FFEE33FE4A
:06021600ED33FD02034878
:10021C00020370EC5D046005E85904700302036688
:10022C00120331580460F6EC4860F2EC7004FDFEE9
:10023C00FF22C860DB2481C85009C39860025006B5
:10024C0002036D9850CAF582E9294B4A7005AB82BE
:10025C0002035C75F0007C1A7880C3EF9BEE9AED7C
:10026C0099400DC3EF9BFFEE9AFEED99FDE842F02D
:10027C00DC23ACF0D0E0FFD0E0FED0E0FDAB822080
:10028C00E7101BEB60BAEC2CFCEF33FFEE33FEED0A
:10029C0033FD020348E803F830E705C0F075F000C1
:1002AC00EF2FFFEE33FEED33FD40B830E7C280AAEE
:1002BC0075F020800E75F010800575F0087D007EBD
:1002CC00007F003392D530D5031204B7EC334010C5
:1002DC00EF33FFEE33FEED33FDEC33FCD5F0ED22C6
:0E02EC00E5F0247EA2D513CC92E7CDCEFF2202
:1002FA00EDD2E7CD33EC3392D524814006E4FFFEFC
:10030A00FDFC22FCE4CFCECDCC24E0501174FF805A
:10031A00EDC3CC13CCCD13CDCE13CECF13CF0470F7
:07032A00F030D5DE0204B73C
:10033100E9D2E7C933E833F892D5EDD2E7CD33EC12
:0703410033FC5002B2D5228B
:10034800EC30E7100FBF000C0EBE00080DBD000416
:100358000BEB6014A2D5EB13FCED92E7FD2274FFC2
:10036800FCFDFEFF22E480F8A2D574FF13FC7D801B
:03037800E480EF2F
:030000000204C532
:0C04C500787FE4F6D8FD75814802050C34
:10037B00E709F608DFFA8046E709F208DFFA803E64
:10038B0088828C83E709F0A3DFFA8032E309F60851
:10039B00DFFA8078E309F208DFFA807088828C83B9
:1003AB00E309F0A3DFFA806489828A83E0A3F6086D
:1003BB00DFFA805889828A83E0A3F208DFFA804C47
:1003CB0080D280FA80C680D4806980F2803380101E
:1003DB0080A680EA809A80A880DA80E280CA803387
:1003EB0089828A83ECFAE493A3C8C582C8CCC583FF
:1003FB00CCF0A3C8C582C8CCC583CCDFE9DEE780CF
:10040B000D89828A83E493A3F608DFF9ECFAA9F04D
:10041B00EDFB2289828A83ECFAE0A3C8C582C8CCA3
:10042B00C583CCF0A3C8C582C8CCC583CCDFEADEBC
:10043B00E880DB89828A83E493A3F208DFF980CC1E
:10044B0088F0EF60010E4E60C388F0ED2402B40417
:10045B000050B9F582EB2402B4040050AF232345BE
:06046B0082239003CB7315
:10047100BB010689828A83E0225002E722BBFE0289
:09048100E32289828A83E49322BC
:10048A00BB010CE58229F582E5833AF583E0225027
:10049A0006E92582F8E622BBFE06E92582F8E22271
:0D04AA00E58229F582E5833AF583E493228B
:0E04B700C3E49FFFE49EFEE49DFDE49CFC2256
:1004D100020783E493A3F8E493A34003F68001F2B7
:1004E10008DFF48029E493A3F85407240CC8C3332C
:1004F100C4540F4420C8834004F456800146F6DFFB
:10050100E4800B01020408102040809006E5E47E9F
:10051100019360BCA3FF543F30E509541FFEE493EF
:10052100A360010ECF54C025E060A840B8E493A3B6
:10053100FAE493A3F8E493A3C8C582C8CAC583CAE1
:10054100F0A3C8C582C8CAC583CADFE9DEE780BE99
:0107270000D1
:00000001FF
