:08027A00E4F5081201D880FE32
:10019E00D3EF9400EE940040147D6E7C00ED1D7044
:0D01AE00011CED4C70F7EF1F70E61E80E3A2
:0101BB002221
:0B026F00EF1FAC0670011E4C70F62261
:10022A004F75747075743A00446972656374696FC6
:05023A006E3A00000017
:1001F400C2A3C2A4C2A58F807F017E0012019ED239
:0B020400A57F017E0012019EC2A52212
:10020F00D2A3C2A4C2A58F807F017E0012019ED20D
:0B021F00A57F017E0012019EC2A522F7
:10023F007F381201F47F061201F47F0C1201F47F54
:04024F00010201F4B3
:10025300C2A3D2A4C2A57580FFD2A5E58070F12206
:0A0112008F098D0A8B0B8A0C890DF2
:10011C00E4F50EE509D394015041E50A940F503BE8
:10012C00AB0BAA0CA90D1200F96030E5097006E5BD
:10013C000A24808004E50A24C0250EFF1201F4ABCA
:10014C000BAA0CA90D1200F9FF12020F050E740177
:0B015C00250DF50DE4350CF50C80C5F9
:010167002275
:1001BC008B138A148915EF70057D08FF800AAB1329
:0C01CC00AA14A9157D0B7F01120112225C
:040168008F0F8D1058
:10016C0078117C007D007BFF7A02793D7E007F0256
:10017C001200D3851011E50F700AFB7A0079117DFE
:10018C0008FF800A7B007A0079117D0B7F01120138
:01019C001250
:01019D00223F
:1001D80012023F7BFF7A02792AE4FDFF1201127BAB
:0C01E800FF7A027932E4FD7F010201126F
:0300000002026396
:0C026300787FE4F6D8FD75811502027A60
:10000300E709F608DFFA8046E709F208DFFA803EDF
:1000130088828C83E709F0A3DFFA8032E309F608CC
:10002300DFFA8078E309F208DFFA807088828C8334
:10003300E309F0A3DFFA806489828A83E0A3F608E8
:10004300DFFA805889828A83E0A3F208DFFA804CC2
:1000530080D280FA80C680D4806980F28033801099
:1000630080A680EA809A80A880DA80E280CA803302
:1000730089828A83ECFAE493A3C8C582C8CCC5837A
:10008300CCF0A3C8C582C8CCC583CCDFE9DEE7804A
:100093000D89828A83E493A3F608DFF9ECFAA9F0C9
:1000A300EDFB2289828A83ECFAE0A3C8C582C8CC1F
:1000B300C583CCF0A3C8C582C8CCC583CCDFEADE38
:1000C300E880DB89828A83E493A3F208DFF980CC9A
:1000D30088F0EF60010E4E60C388F0ED2402B40493
:1000E3000050B9F582EB2402B4040050AF2323453A
:0600F3008223900053730C
:1000F900BB010689828A83E0225002E722BBFE0205
:09010900E32289828A83E4932237
:00000001FF
