:080003001206FB12045980FBF8
:10065A00D3EF9400EE940040147D6E7C00ED1D7083
:0D066A00011CED4C70F7EF1F70E61E80E3E1
:010677002260
:0B000E00EF1FAC0670011E4C70F622C4
:1006E6004F75747075743A00446972656374696F06
:0506F6006E3A00000057
:1006B000C2A3C2A4C2A58F807F017E0012065AD2B7
:0B06C000A57F017E0012065AC2A52291
:1006CB00D2A3C2A4C2A58F807F017E0012065AD28C
:0B06DB00A57F017E0012065AC2A52276
:100710007F381206B07F061206B07F0C1206B07F3B
:04072000010206B01C
:10072400C2A3D2A4C2A57580FFD2A5E58070F12230
:0A059C008F088D098B0A8A0B890C69
:1005A600E4F50DE508D394015041E509940F503B5D
:1005B600AB0AAA0BA90C1203796030E5087006E5B0
:1005C6000924808004E50924C0250DFF1206B0AB7E
:1005D6000AAA0BA90C120379FF1206CB050D7401AA
:0B05E600250CF50CE4350BF50B80C56F
:0105F10022E7
:100678008B1C8A1D891EEF70057D08FF800AAB1C44
:0C068800AA1DA91E7D0B7F0112059C22FB
:0405F2008F188D19B8
:1005F600781A7C007D007BFF7A0679F97E007F02FF
:1006060012035385191AE518700AFB7A00791A7DC8
:1006160008FF800A7B007A00791A7D0B7F0112059C
:010626009C37
:0106270022B0
:100694001207107BFF7A0679E6E4FDFF12059C7BC6
:0C06A400FF7A0679EEE4FD7F0102059C60
:0D062800C100030FBFBFBF010E0001120093
:1006FB00438901E4F58CF58AF58DF58BD2A9D2AB44
:05070B00D28ED2AF22E6
:10045900E4F58CF58A30A7FDD28C20A7FDC28CAFBC
:100469008CEFFEAD8A7C00E42DFDEC3EFCE412012C
:10047900C97B967A43790B783D12001EE4FBFAF9A1
:1004890078401201271202028F12E512D3943250DA
:100499000330000DC2007511BF7510BF750FBF8005
:1004A9002CE51275F064842421F8E6F511E512753E
:1004B900F06484E5F075F00A842431F8E6F510E576
:1004C9001275F00A84743125F0F8E6F50FAF12229F
:03000B00020734B5
:03073400D20032BE
:03001B0002053C9F
:10053C00C0E0C0F0C083C082C0D075D000C000C085
:10054C0001C002C003C004C005C006C007758D0001
:10055C00758B007B007A00790F7D031204D9050E90
:10056C00E50EC3941E400ED2A67F027E0012000E32
:10057C00C2A6750E00D007D006D005D004D003D08B
:10058C0002D001D000D0D0D082D083D0F0D0E032D5
:100635001031C0F9A4B0999282F880908883C6A140
:10064500868E102140792430191202780010080393
:040655004621060E26
:0804D9008B138A1489158D169E
:1004E100E4F517E517C395165050E517146010147D
:1004F100601714601E24037022C2A3D2A28004D20A
:10050100A3C2A2D2A1D2A08012D2A3D2A2C2A1D24E
:10051100A08008D2A3D2A2D2A1C2A0AB13AA14A9CF
:1005210015851782758300120392F5807F017E0085
:0A05310012065A7580FF051780A915
:01053B00229D
:10001E00EC4D6011E8497017ED33EC3304600DE4DC
:10002E00FCFFFEFD22E933E8330470F802026E1283
:10003E00023958046009E4CC248150062850090284
:10004E000278284003020275C0E0EB4A7044B98082
:10005E0006D0E0FB020264EF4E701CBD8008EBFF81
:10006E00EAFEE9FD80EBE98DF0A4FEE5F002010762
:10007E00E9CDF9EAFEEBFFEF89F0A4FCE5F0CE89BD
:10008E00F0A42EFFE435F0CD89F0A42DFEE435F07A
:10009E008067EF4E7005BD80D780C3EF8BF0A4ACA8
:1000AE00F0EE8BF0A42CFCE435F0F8EF8AF0A42CE3
:1000BE00E5F038FCE433CB8DF0A42CFCE5F03BF8F6
:1000CE00EE8AF0A42CFCE5F038F8E433CF89F0A4E6
:1000DE002CFCE5F038CF3400CE89F0A42FFFE5F0EC
:1000EE003EFEE433C98DF0A42EFEE5F039CD8AF044
:1000FE00A42FFFE5F03EFEE43DFD33D0E0FB5007BC
:10010E000BBB000F020278EC2CFCEF33FFEE33FE3C
:06011E00ED33FD0202506A
:10012400020278EC5D046005E85904700302026E73
:10013400120239580460F6EC4860F2EC7004FDFEDB
:10014400FF22C860DB2481C85009C39860025006AE
:100154000202759850CAF582E9294B4A7005AB82B0
:1001640002026475F0007C1A7880C3EF9BEE9AED6E
:1001740099400DC3EF9BFFEE9AFEED99FDE842F026
:10018400DC23ACF0D0E0FFD0E0FED0E0FDAB822079
:10019400E7101BEB60BAEC2CFCEF33FFEE33FEED03
:1001A40033FD020250E803F830E705C0F075F000B3
:1001B400EF2FFFEE33FEED33FD40B830E7C280AAE7
:1001C40075F020800E75F010800575F0087D007EB6
:1001D400007F003392D530D5031203BFEC334010B7
:1001E400EF33FFEE33FEED33FDEC33FCD5F0ED22BF
:0E01F400E5F0247EA2D513CC92E7CDCEFF22FB
:10020200EDD2E7CD33EC3392D524814006E4FFFEF4
:10021200FDFC22FCE4CFCECDCC24E0501174FF8053
:10022200EDC3CC13CCCD13CDCE13CECF13CF0470F0
:07023200F030D5DE0203BF2E
:10023900E9D2E7C933E833F892D5EDD2E7CD33EC0B
:0702490033FC5002B2D52284
:10025000EC30E7100FBF000C0EBE00080DBD00040F
:100260000BEB6014A2D5EB13FCED92E7FD2274FFBB
:10027000FCFDFEFF22E480F8A2D574FF13FC7D8014
:03028000E480EF28
:030000000203CD2B
:0C03CD00787FE4F6D8FD7581400204142E
:10028300E709F608DFFA8046E709F208DFFA803E5D
:1002930088828C83E709F0A3DFFA8032E309F6084A
:1002A300DFFA8078E309F208DFFA807088828C83B2
:1002B300E309F0A3DFFA806489828A83E0A3F60866
:1002C300DFFA805889828A83E0A3F208DFFA804C40
:1002D30080D280FA80C680D4806980F28033801017
:1002E30080A680EA809A80A880DA80E280CA803380
:1002F30089828A83ECFAE493A3C8C582C8CCC583F8
:10030300CCF0A3C8C582C8CCC583CCDFE9DEE780C7
:100313000D89828A83E493A3F608DFF9ECFAA9F046
:10032300EDFB2289828A83ECFAE0A3C8C582C8CC9C
:10033300C583CCF0A3C8C582C8CCC583CCDFEADEB5
:10034300E880DB89828A83E493A3F208DFF980CC17
:1003530088F0EF60010E4E60C388F0ED2402B40410
:100363000050B9F582EB2402B4040050AF232345B7
:0603730082239002D37307
:10037900BB010689828A83E0225002E722BBFE0282
:09038900E32289828A83E49322B5
:10039200BB010CE58229F582E5833AF583E0225020
:1003A20006E92582F8E622BBFE06E92582F8E2226A
:0D03B200E58229F582E5833AF583E4932284
:0E03BF00C3E49FFFE49EFEE49DFDE49CFC224F
:1003D900020003E493A3F8E493A34003F68001F237
:1003E90008DFF48029E493A3F85407240CC8C33325
:1003F900C4540F4420C8834004F456800146F6DFF4
:10040900E4800B0102040810204080900628E47E55
:10041900019360BCA3FF543F30E509541FFEE493E8
:10042900A360010ECF54C025E060A840B8E493A3AF
:10043900FAE493A3F8E493A3C8C582C8CAC583CADA
:10044900F0A3C8C582C8CAC583CADFE9DEE780BE92
:0106590000A0
:00000001FF
