:10073D00751FFF120714120673E51FB404F8120497
:03074D005980F3DD
:10065500D3EF9400EE940040147D6E7C00ED1D7088
:0D066500011CED4C70F7EF1F70E61E80E3E6
:010672002265
:0B076C00EF1FAC0670011E4C70F6225F
:1006FF004F75747075743A00446972656374696FED
:05070F006E3A0000003D
:1006C900C2A3C2A4C2A58F807F017E00120655D2A3
:0B06D900A57F017E00120655C2A5227D
:1006E400D2A3C2A4C2A58F807F017E00120655D278
:0B06F400A57F017E00120655C2A52262
:100729007F381206C97F061206C97F0C1206C97FD7
:04073900010206C9EA
:10075000C2A3D2A4C2A57580FFD2A5E58070F12204
:0A0594008F088D098B0A8A0B890C71
:10059E00E4F50DE508D394015041E509940F503B65
:1005AE00AB0AAA0BA90C1203796030E5087006E5B8
:1005BE000924808004E50924C0250DFF1206C9AB6D
:1005CE000AAA0BA90C120379FF1206E4050D740199
:0B05DE00250CF50CE4350BF50B80C577
:0105E90022EF
:100691008B1C8A1D891EEF70057D08FF800AAB1C2B
:0C06A100AA1DA91E7D0B7F0112059422EA
:0405EA008F188D19C0
:1005EE00781A7C007D007BFF7A0779127E007F02ED
:1005FE0012035385191AE518700AFB7A00791A7DD1
:10060E0008FF800A7B007A00791A7D0B7F011205A4
:01061E009447
:01061F0022B8
:1006AD001207297BFF7A0679FFE4FDFF1205947B83
:0C06BD00FF7A077907E4FD7F0102059435
:0D062000C100030FBFBFBF010E000112009B
:10071400438901E4F58CF58AF58DF58BD2A9D2AB2A
:05072400D28ED2AF22CD
:10045900E4F58CF58A30A7FDD28C20A7FDC28CAFBC
:100469008CEFFEAD8A7C00E42DFDEC3EFCE412012C
:10047900C97B967A43790B783D12001EE4FBFAF9A1
:1004890078401201271202028F12E512D3943250DA
:100499000330000512000E802CE51275F0648424E7
:1004A90021F8E6F511E51275F06484E5F075F00AB6
:1004B900842431F8E6F510E51275F00A84743125C3
:0804C900F0F8E6F50FAF122276
:0C000E00C2007511BF7510BF750FBF2236
:03000B00020003ED
:03000300D20032F6
:03001B00020534A7
:10053400C0E0C0F0C083C082C0D075D000C000C08D
:1005440001C002C003C004C005C006C007758D0009
:10055400758B007B007A00790F7D031204D1050EA0
:10056400E50EC3941E400ED2A67F027E0012076CD5
:10057400C2A6750E00D007D006D005D004D003D093
:1005840002D001D000D0D0D082D083D0F0D0E032DD
:10062D001031C0F9A4B0999282F880908883C6A148
:10063D00868E10214079243019120278001008039B
:04064D004621060E2E
:0804D1008B138A1489158D16A6
:1004D900E4F517E517C395165050E5171460101485
:1004E900601714601E24037022C2A3D2A28004D212
:1004F900A3C2A2D2A1D2A08012D2A3D2A2C2A1D257
:10050900A08008D2A3D2A2D2A1C2A0AB13AA14A9D7
:1005190015851782758300120392F5807F017E008D
:0A0529001206557580FF051780A922
:0105330022A5
:03065100011FFF87
:0C076000E51FB507047FFF80008F1F22FB
:1006730020A41A7F147E0012065520A41030A4FD76
:0E0683007F04120760E51FB4FF0312000E2271
:10001E00EC4D6011E8497017ED33EC3304600DE4DC
:10002E00FCFFFEFD22E933E8330470F802026E1283
:10003E00023958046009E4CC248150062850090284
:10004E000278284003020275C0E0EB4A7044B98082
:10005E0006D0E0FB020264EF4E701CBD8008EBFF81
:10006E00EAFEE9FD80EBE98DF0A4FEE5F002010762
:10007E00E9CDF9EAFEEBFFEF89F0A4FCE5F0CE89BD
:10008E00F0A42EFFE435F0CD89F0A42DFEE435F07A
:10009E008067EF4E7005BD80D780C3EF8BF0A4ACA8
:1000AE00F0EE8BF0A42CFCE435F0F8EF8AF0A42CE3
:1000BE00E5F038FCE433CB8DF0A42CFCE5F03BF8F6
:1000CE00EE8AF0A42CFCE5F038F8E433CF89F0A4E6
:1000DE002CFCE5F038CF3400CE89F0A42FFFE5F0EC
:1000EE003EFEE433C98DF0A42EFEE5F039CD8AF044
:1000FE00A42FFFE5F03EFEE43DFD33D0E0FB5007BC
:10010E000BBB000F020278EC2CFCEF33FFEE33FE3C
:06011E00ED33FD0202506A
:10012400020278EC5D046005E85904700302026E73
:10013400120239580460F6EC4860F2EC7004FDFEDB
:10014400FF22C860DB2481C85009C39860025006AE
:100154000202759850CAF582E9294B4A7005AB82B0
:1001640002026475F0007C1A7880C3EF9BEE9AED6E
:1001740099400DC3EF9BFFEE9AFEED99FDE842F026
:10018400DC23ACF0D0E0FFD0E0FED0E0FDAB822079
:10019400E7101BEB60BAEC2CFCEF33FFEE33FEED03
:1001A40033FD020250E803F830E705C0F075F000B3
:1001B400EF2FFFEE33FEED33FD40B830E7C280AAE7
:1001C40075F020800E75F010800575F0087D007EB6
:1001D400007F003392D530D5031203BFEC334010B7
:1001E400EF33FFEE33FEED33FDEC33FCD5F0ED22BF
:0E01F400E5F0247EA2D513CC92E7CDCEFF22FB
:10020200EDD2E7CD33EC3392D524814006E4FFFEF4
:10021200FDFC22FCE4CFCECDCC24E0501174FF8053
:10022200EDC3CC13CCCD13CDCE13CECF13CF0470F0
:07023200F030D5DE0203BF2E
:10023900E9D2E7C933E833F892D5EDD2E7CD33EC0B
:0702490033FC5002B2D52284
:10025000EC30E7100FBF000C0EBE00080DBD00040F
:100260000BEB6014A2D5EB13FCED92E7FD2274FFBB
:10027000FCFDFEFF22E480F8A2D574FF13FC7D8014
:03028000E480EF28
:030000000203CD2B
:0C03CD00787FE4F6D8FD7581400204142E
:10028300E709F608DFFA8046E709F208DFFA803E5D
:1002930088828C83E709F0A3DFFA8032E309F6084A
:1002A300DFFA8078E309F208DFFA807088828C83B2
:1002B300E309F0A3DFFA806489828A83E0A3F60866
:1002C300DFFA805889828A83E0A3F208DFFA804C40
:1002D30080D280FA80C680D4806980F28033801017
:1002E30080A680EA809A80A880DA80E280CA803380
:1002F30089828A83ECFAE493A3C8C582C8CCC583F8
:10030300CCF0A3C8C582C8CCC583CCDFE9DEE780C7
:100313000D89828A83E493A3F608DFF9ECFAA9F046
:10032300EDFB2289828A83ECFAE0A3C8C582C8CC9C
:10033300C583CCF0A3C8C582C8CCC583CCDFEADEB5
:10034300E880DB89828A83E493A3F208DFF980CC17
:1003530088F0EF60010E4E60C388F0ED2402B40410
:100363000050B9F582EB2402B4040050AF232345B7
:0603730082239002D37307
:10037900BB010689828A83E0225002E722BBFE0282
:09038900E32289828A83E49322B5
:10039200BB010CE58229F582E5833AF583E0225020
:1003A20006E92582F8E622BBFE06E92582F8E2226A
:0D03B200E58229F582E5833AF583E4932284
:0E03BF00C3E49FFFE49EFEE49DFDE49CFC224F
:1003D90002073DE493A3F8E493A34003F68001F2F6
:1003E90008DFF48029E493A3F85407240CC8C33325
:1003F900C4540F4420C8834004F456800146F6DFF4
:10040900E4800B0102040810204080900620E47E5D
:10041900019360BCA3FF543F30E509541FFEE493E8
:10042900A360010ECF54C025E060A840B8E493A3AF
:10043900FAE493A3F8E493A3C8C582C8CAC583CADA
:10044900F0A3C8C582C8CAC583CADFE9DEE780BE92
:0106540000A5
:00000001FF
